:100000000C942A000C9434000C9434000C943400AA
:100010000C9434000C9434000C9434000C94340090
:100020000C9434000C9434000C9434000C94340080
:100030000C9434000C9434000C9434000C94340070
:100040000C9434000C9434000C9434000C94340060
:100050000C94340011241FBECFE5D4E0DEBFCDBF29
:100060000E9444000C9458020C940000379A329A73
:100070003E9A089587B1836087B9369A86B1349ADB
:1000800024B135B1C90108957F928F929F92AF92AA
:10009000BF92CF92DF92EF92FF920F931F93CF9375
:1000A000DF9311BA8FEF87BB82BB0E94360084EDCD
:1000B00090E30197F1F73AE0732E29E1822E912C1B
:1000C0000E943A009C0180B38E3F09F092C0C901A2
:1000D00068E270E00E944402EB0178BA9401261BAA
:1000E000370BB901660F771F620F731F80E090E036
:1000F0000E942B015B016C0120E030E04AE753E4F1
:100100000E94B9017B018C0120E030E040E85FE310
:100110000E94FB0088231CF461E070E022C0C8014B
:10012000B70120E03FEF4FE757E40E94B5011816F2
:10013000A4F4C601B50120E030E040E251E40E94A1
:10014000B9010E94FF0005C0C4010197F1F7615099
:10015000704061157105C1F707C0C801B7010E9461
:10016000FF00CB010197F1F718BABE01660F771FA8
:100170006C0F7D1F80E090E00E942B015B016C0101
:1001800020E030E04AE753E40E94B9017B018C0192
:1001900020E030E040E85FE30E94FB0088231CF48D
:1001A00061E070E022C0C801B70120E03FEF4FE7F7
:1001B00057E40E94B5011816A4F4C601B50120E069
:1001C00030E040E251E40E94B9010E94FF0005C006
:1001D000C4010197F1F76150704061157105C1F7D5
:1001E0006FCFC801B7010E94FF00CB010197F1F763
:1001F00067CF78BA65CF6CD008F481E0089594D0C9
:1002000088F09F5790F0B92F9927B751A0F0D1F0FF
:10021000660F771F881F991F1AF0BA95C9F712C089
:10022000B13081F09BD0B1E0089598C0672F782F4E
:100230008827B85F39F0B93FCCF3869577956795F5
:10024000B395D9F73EF490958095709561957F4F61
:100250008F4F9F4F0895E89409C097FB3EF4909507
:100260008095709561957F4F8F4F9F4F9923A9F08F
:10027000F92F96E9BB279395F6958795779567951E
:10028000B795F111F8CFFAF4BB0F11F460FF1BC062
:100290006F5F7F4F8F4F9F4F16C0882311F096E9F5
:1002A00011C0772321F09EE8872F762F05C06623A3
:1002B00071F096E8862F70E060E02AF09A95660F5C
:1002C000771F881FDAF7880F9695879597F9089515
:1002D000990F0008550FAA0BE0E8FEEF1616170657
:1002E000E807F907C0F012161306E407F50798F0BF
:1002F000621B730B840B950B39F40A2661F0232BD8
:10030000242B252B21F408950A2609F4A140A69553
:100310008FEF811D811D089557FD9058440F551F83
:1003200059F05F3F71F04795880F97FB991F61F077
:100330009F3F79F087950895121613061406551FEE
:10034000F2CF4695F1DF08C0161617061806991F5A
:10035000F1CF86957105610508940895E894BB274F
:1003600066277727CB0197F90895B2DF08F48FEF5E
:1003700008950BD078C069D028F06ED018F095237E
:1003800009F05AC05FC01124EACFC6DFA0F3959FE1
:10039000D1F3950F50E0551F629FF001729FBB276C
:1003A000F00DB11D639FAA27F00DB11DAA1F649F18
:1003B0006627B00DA11D661F829F2227B00DA11DCB
:1003C000621F739FB00DA11D621F839FA00D611D51
:1003D000221F749F3327A00D611D231F849F600D72
:1003E000211D822F762F6A2F11249F5750408AF0AB
:1003F000E1F088234AF0EE0FFF1FBB1F661F771F37
:10040000881F91505040A9F79E3F510570F014C0CD
:10041000A6CF5F3FECF3983EDCF386957795679522
:10042000B795F795E7959F5FC1F7FE2B880F911D54
:100430009695879597F9089597F99F6780E870E0FA
:1004400060E008959FEF80EC089500240A9416164A
:10045000170618060906089500240A9412161306B2
:10046000140605060895092E0394000C11F4882340
:1004700052F0BB0F40F4BF2B11F460FF04C06F5F5C
:100480007F4F8F4F9F4F0895AA1BBB1B51E107C0A1
:10049000AA1FBB1FA617B70710F0A61BB70B881F14
:1004A000991F5A95A9F780959095BC01CD010895A3
:0404B000F894FFCFEE
:00000001FF
